:100000000C945C000C9479000C9479000C947900A9
:100010000C9479000C9479000C9479000C9479007C
:100020000C9479000C9479000C9479000C9479006C
:100030000C9479000C9479000C9479000C9479005C
:100040000C94C2050C9479000C9479000C947900FE
:100050000C9479000C9479000C9479000C9479003C
:100060000C9479000C947900000000002400270013
:100070002A0000000000250028002B0004040404CE
:100080000404040402020202020203030303030342
:10009000010204081020408001020408102001021F
:1000A00004081020000000080002010000030407FB
:1000B000000000000000000011241FBECFEFD8E0B8
:1000C000DEBFCDBF11E0A0E0B1E0E4E4FDE102C09D
:1000D00005900D92A231B107D9F721E0A2E1B1E07C
:1000E00001C01D92A133B207E1F70E940C060C94E7
:1000F000A00E0C94000090E0FC01EC55FF4F249101
:10010000FC01E057FF4F3491FC01E458FF4FE491AC
:10011000EE23B9F1222339F1233091F038F4213064
:10012000A9F0223001F584B58F7D12C0273091F0FF
:100130002830A1F02430B9F4809180008F7D03C075
:10014000809180008F77809380000DC084B58F7779
:1001500084BD09C08091B0008F7703C08091B0004A
:100160008F7D8093B000F0E0EE0FFF1FEE58FF4F41
:10017000A591B4918FB7F894EC9130953E233C93C0
:100180008FBF0895CF93DF9390E0FC01E057FF4FBE
:100190002491FC01E458FF4F8491882361F190E0A1
:1001A000880F991FFC01E859FF4FC591D491FC01BC
:1001B000EE58FF4FA591B491611109C09FB7F89413
:1001C0008881209582238883EC912E230BC0623096
:1001D00061F49FB7F8943881822F809583238883B8
:1001E000EC912E2B2C939FBF06C08FB7F894E8811B
:1001F0002E2B28838FBFDF91CF9108953FB7F894BE
:100200008091290190912A01A0912B01B0912C019C
:1002100026B5A89B05C02F3F19F00196A11DB11D61
:100220003FBFBA2FA92F982F8827820F911DA11D9C
:10023000B11DBC01CD0142E0660F771F881F991FD9
:100240004A95D1F70895CF92DF92EF92FF920F93E4
:100250001F93CF93DF93CDB7DEB729970FB6F894EE
:10026000DEBF0FBECDBF8C010E94FE00D8011E96DE
:10027000CD90DD90ED90FC905197DC01CB018C1975
:100280009D09AE09BF09C297A105B10568F3F894AD
:10029000F801848195819A8389830084F185E02D1A
:1002A0007F018FEFE81AF80A80818B83D8019C9137
:1002B0005296ED91FC91539754968C91992309F4A1
:1002C00030C09081982B9C839081809589238D8369
:1002D0008D818E8388E08F835C816D814B813F812E
:1002E0002E8189819A81D701508347FD252F3A9528
:1002F0002083262F39F0441F00C0000060830000D7
:1003000000C0F2CF38E04D9160830000019761F7A3
:10031000D8015396FC93EE9352974B833F832E83E1
:100320003AC09081982B9C839081809589238D83FE
:100330008D81888788E089875C816D814B813985D3
:10034000288589819A81D701508347FD252F00C0D8
:1003500000C0208300C000C000C000C000C0608397
:100360000000262F3A9541F0441F000000C000C055
:1003700000C000C000C0E8CF38E04D9100C06083ED
:1003800000C0019709F7D8015396FC93EE9352975A
:100390004B83398728879A83898378940E94FE004B
:1003A000F80166877787808B918B29960FB6F89432
:1003B000DEBF0FBECDBFDF91CF911F910F91FF9098
:1003C000EF90DF90CF9008958F929F92AF92BF925F
:1003D000CF92DF92EF92FF920F931F93CF93DF9311
:1003E000FC01828193816817790708F04CC04A01AB
:1003F000AA24BB24B82DC32ED42EE52EFF24AC2D69
:10040000922F8781882361F0889E40011124B92DA5
:10041000C89E60011124AD2D289FE00111249D2F5D
:10042000D584C285E084F184DC1208C09B01220FD0
:10043000331F620F731F6E0D7F1D16C0660F771F6F
:10044000660F771F6E0D7F1D052F1127222733277B
:10045000EB01CD0DD11D882329F0089F90011124B7
:10046000232F01C0202F28838285EB01C80FD11DC7
:10047000B8838385EB01C80FD11DA8838485FB0158
:10048000E80FF11D9083DF91CF911F910F91FF90A5
:10049000EF90DF90CF90BF90AF909F908F90089596
:1004A0004F925F926F927F928F929F92AF92BF9284
:1004B000CF92DF92EF92FF920F931F93CF93DF9330
:1004C000EC014A015B0128013901481459046A040E
:1004D0007B04C8F0C401880F991F880F991F2E85CF
:1004E0003F858901080F191FC701B6010E94490CF9
:1004F000F8016083718382839383FFEF8F1A9F0AD1
:10050000AF0ABF0AE2CFDF91CF911F910F91FF9009
:10051000EF90DF90CF90BF90AF909F908F907F90A3
:100520006F905F904F9008952F923F924F925F92FD
:100530006F927F928F929F92AF92BF92CF92DF92F3
:10054000EF92FF920F931F93CF93DF93CDB7DEB758
:1005500065970FB6F894DEBF0FBECDBF9A87898727
:100560002A013B010A8B1B8B2C8B3D8BC701B601EB
:10057000EAA41BA50CA5FDA420E030E040EC50E46B
:100580000E94060D6D837E838F8398870E94420CA4
:100590007F876E87072E000C880B990B0E947A0CC0
:1005A0009B01AC016D817E818F8198850E94630BD8
:1005B00069837A838B839C83A501940160E070E05A
:1005C00080E89FE30E94630B9B01AC016E2D712FAD
:1005D000802F9F2D0E94060DD62EC72E382E292E35
:1005E000A501940169817A818B819C810E94060D0D
:1005F0009B01AC0160E070E080E89FE30E94630B28
:100600009B01AC016E2D712F802F9F2D0E94060D36
:100610006D837B878C879D8729813A814B815C81A3
:1006200060E070E080E89FE30E94630BA501940105
:100630000E94060D9B01AC0160E070E080E89FE342
:100640000E94630B9B01AC016E2D712F802F9F2D9B
:100650000E94060DE62F472F382F292F8E859F8564
:1006600066E070E00E942D0B8230910511F194F448
:100670000097B9F0019709F045C03E2D212F902F2A
:100680008F2DED801B850C85FD84DD82CB863C861D
:100690002D861BC08430910561F1D4F00597F1F1EE
:1006A00031C0DD82CB863C862D86DE2EC42E19011C
:1006B00035C0ED834B873C872D873E2D212F902F12
:1006C0008F2DED2C1C2D032DF22C69011C0126C051
:1006D0003E2D212F902F8F2DED2C1C2D032DF22C34
:1006E000DD80CB843C842D843D832B879C878D8744
:1006F00015C0ED821B870C87FD86EE2E142F032F6D
:10070000F22E0CC01D821B861C861D86D12CC12C8E
:10071000312C212CE12C10E000E0F12CE985FA8548
:1007200080819181A281B3812A893B894C895D892D
:1007300082179307A407B50708F47FC08A899B89AD
:10074000AC89BD8984159505A605B70508F48EC149
:10075000A201440F551F440F551F5F874E87A9857F
:10076000BA851E96ED91FC911F97E40FF51F6081ED
:100770007181828193810E94780C69837A838B8353
:100780009C8320E030E04FE753E46E2D712F802FE3
:100790009F2D0E94060D29813A814B815C810E9428
:1007A000060D0E94490C862E912CA12CB12C5401CF
:1007B0009924882420E030E04FE753E46D2D7C2D10
:1007C000832D922D0E94060D29813A814B815C81F7
:1007D0000E94060D0E94490C962A20E030E04FE767
:1007E00053E46D817B858C859D850E94060D298152
:1007F0003A814B815C810E94060D0E94490C862A39
:10080000A5019401B201E985FA85818D928D0E943E
:10081000E401A985BA851C96ED91FC911D972E8562
:100820003F85E20FF31F80829182A282B3823FEF65
:10083000431A530A630A730A81CFE985FA858081D6
:100840009181A281B38184159505A605B70508F4A9
:1008500079C0D201AA0FBB1FAA0FBB1FBF87AE87EB
:10086000A985BA851E96ED91FC911F972E853F852F
:10087000E20FF31F60817181828193810E94780C65
:1008800069837A838B839C8320E030E04FE753E4D5
:100890006E2D712F802F9F2D0E94060D29813A8188
:1008A0004B815C810E94060D0E94490C862E912C82
:1008B000A12CB12C54019924882420E030E04FE78A
:1008C00053E46D2D7C2D832D922D0E94060D2981E0
:1008D0003A814B815C810E94060D0E94490C962A48
:1008E00020E030E04FE753E46D817B858C859D856A
:1008F0000E94060D29813A814B815C810E94060D80
:100900000E94490C862AA5019401B201A985BA85E5
:1009100059968D919C915A970E94E401A985BA85B8
:100920001C96ED91FC911D972E853F85E20FF31FDC
:1009300080829182A282B3823FEF431A530A630AF4
:10094000730A7BCF1A821982812C912C5401A985BC
:10095000BA852D913D914D915C916A897B898C89F5
:100960009D890E94410BDC01CB010197A109B109CE
:1009700088159905AA05BB0508F478C0A985BA852C
:100980001E96ED91FC911F9729813A81E20FF31F8A
:1009900060817181828193810E94780C6E877F874C
:1009A000888B998B20E030E04FE753E46E2D712F58
:1009B000802F9F2D0E94060D2E853F8548895989DD
:1009C0000E94060D0E94490C462E512C612C712C60
:1009D00032015524442420E030E04FE753E46D2DEC
:1009E0007C2D832D922D0E94060D2E853F854889F2
:1009F00059890E94060D0E94490C562A20E030E0D9
:100A00004FE753E46D817B858C859D850E94060DA3
:100A10002E853F85488959890E94060D0E94490C00
:100A2000462AA3019201B401A985BA8559968D91F0
:100A30009C915A970E94E401A985BA851C96ED9174
:100A4000FC911D9729813A81E20FF31F4082518268
:100A5000628273823FEF831A930AA30AB30A498121
:100A60005A814C5F5F4F5A83498371CF65960FB6A9
:100A7000F894DEBF0FBECDBFDF91CF911F910F91D4
:100A8000FF90EF90DF90CF90BF90AF909F908F90AE
:100A90007F906F905F904F903F902F9008952F928E
:100AA0003F924F925F926F927F928F929F92AF92FE
:100AB000BF92CF92DF92EF92FF920F931F93CF934B
:100AC000DF93CDB7DEB71C01142F9C2CA12CB12CC9
:100AD000C12CD12C7601F10180819181A281B38159
:100AE0008C159D05AE05BF05D0F1D1011E96ED9187
:100AF000FC911F97EA0DFB1D8081889D902D11248C
:100B0000819F402C1124512C612C712C32015524D1
:100B10004424792A899D902D1124492A809F802D73
:100B20001124582AA3019201B60159968D919C91E6
:100B30005A970E94E401D1011C96ED91FC911D97FA
:100B4000EA0DFB1D4082518262827382BFEFCB1A95
:100B5000DB0AEB0AFB0AE4E0AE0EB11CBCCFDF916E
:100B6000CF911F910F91FF90EF90DF90CF90BF90AA
:100B7000AF909F908F907F906F905F904F903F903D
:100B80002F9008951F920F920FB60F9211242F935A
:100B90003F938F939F93AF93BF9380912501909143
:100BA0002601A0912701B09128013091240123E072
:100BB000230F2D3720F40196A11DB11D05C026E895
:100BC000230F0296A11DB11D2093240180932501BE
:100BD00090932601A0932701B093280180912901C9
:100BE00090912A01A0912B01B0912C010196A11D99
:100BF000B11D8093290190932A01A0932B01B093FA
:100C00002C01BF91AF919F918F913F912F910F90A8
:100C10000FBE0F901F901895CF93DF9300D000D098
:100C200000D0CDB7DEB7789484B5826084BD84B53A
:100C3000816084BD85B5826085BD85B5816085BDD7
:100C400080916E00816080936E001092810080918F
:100C50008100826080938100809181008160809317
:100C60008100809180008160809380008091B1003C
:100C700084608093B1008091B00081608093B00067
:100C800080917A00846080937A0080917A008260FB
:100C900080937A0080917A00816080937A008091BD
:100CA0007A00806880937A001092C1008BE190E016
:100CB0000E94730D7C0185E190E00E94730D8C0110
:100CC000DC0111961C92119717961C92FC01168656
:100CD0001786108A118A83E0858781E082871386D0
:100CE00092E09487808380E490E0958384830E94DF
:100CF000730DD80119969C938E931897009761F005
:100D000020E4FC0111922A95E9F780E190E0139626
:100D10009C938E93129709C0D80115961C921E922F
:100D2000149713961C921E92129786E0F801868300
:100D30008181882339F061E086E00E94C20086E06C
:100D40000E947B00E2E8F0E0E491F0E0EE0FFF1F8C
:100D5000EE58FF4F85919491D80153969C938E93B2
:100D60005297E6E9F0E0E4915496EC935497F7013A
:100D7000128F018F16968C9187FD08C061E00E944A
:100D8000C200D80116968C910E947B0081E0F80188
:100D90008183D7015996ED91FC915A976781613112
:100DA000F9F020853185615031F070E08FEF90E1EE
:100DB0000E94190B02C060E070E0D90144815581A6
:100DC000CD01821B930B8417950740F44C91469FED
:100DD000C001479F900D11249D93F0CF81E187833F
:100DE000F701818D928DDC0118962D913C91199718
:100DF000232B11F00E94230180E490E00E94730DE8
:100E00008C01F7018487158780E490E00E94730DC0
:100E1000D7011E968C931E971F969C93F80140E075
:100E200050E0BA01D7010D911D912D913C9104170D
:100E300015072607370748F0119211921192119267
:100E40004F5F5F4F6F4F7F4FEDCFFC0180E090E031
:100E5000DC0141E050E060E070E0081719072A0764
:100E60003B0740F041935193619371930196A11D0B
:100E7000B11DF3CF8FE090E0A0E0B0E0F7018083F8
:100E80009183A283B38387E090E0A0E0B0E0848305
:100E90009583A683B7831086118612861386108EDB
:100EA000178A118A128AF0922301E0922201948B10
:100EB000838B85E090E0968B858B81E0808BE09141
:100EC0002201F0912301FE83ED838389948983308D
:100ED000910509F48BC0A4F48130910521F10297AA
:100EE00009F049C1812C912C5401C12CD12C7601DF
:100EF00000E010E098014FEF50E060E070E048C182
:100F00008630910509F47DC08730910509F4DCC075
:100F1000049709F030C1812C912C5401C12CD12CA3
:100F20007601CA942FC1412C512C3201ED81FE81F2
:100F300080819181A281B38184159505A605B705AD
:100F400008F44BC09C01AD012F5F3F4F4F4F5F4FE7
:100F500068E671E080E090E00E94410B429EB001A3
:100F6000439E700D529E700D1124AD81BE81189666
:100F70008D919C911997860F971F68E671E00E94EA
:100F80002D0BBC01990F880B990B0E947A0C20E065
:100F900030E044EB53E40E94D00B6B017C01BFE3D3
:100FA000BF93E0E8EF931F921F92812C912CA0E851
:100FB000AA2EAFE3BA2E93018201B301A2018D8163
:100FC0009E810E949402FFEF4F1A5F0A6F0A7F0A08
:100FD0000F900F900F900F90A9CF6085718582853B
:100FE000938528E631E040E050E0B7C0812C912C99
:100FF0005401C12CD12C76010FEF10E020E030E03D
:10100000C4C0212C312C412C512C3201ED81FE81A8
:1010100080819181A281B38184159505A605B705CC
:1010200008F4BAC09C01AD012F5F3F4F4F4F5F4F97
:1010300068E671E080E090E00E94410B429EC001B2
:10104000439E900D529E900D112468E671E00E941F
:101050002D0BBC01990F880B990B0E947A0C20E094
:1010600030E044EB53E40E94D00B6B017C01AD8176
:10107000BE811E96ED91FC911F97E20DF31D6081DC
:101080007181828193810E94780C9F938F937F93CB
:101090006F93812C912CE0E8AE2EEFE3BE2E9301EE
:1010A0008201B301A2018D819E810E949402BFEF53
:1010B0004B1A5B0A6B0A7B0AE4E02E0E311C0F9080
:1010C0000F900F900F90A2CF412C512C3201AD8187
:1010D000BE810D911D912D913C91139718966D91A4
:1010E0007D918D919C911B9704151505260537055B
:1010F00080F128EE33E040E050E00E94410B61E0D7
:1011000070E080E090E0621B730B840B950B0E94F3
:10111000780C4B015C01FFE3FF9340E84F931F9273
:101120001F92C12CD12C70EFE72E72E4F72E9301A1
:101130008201B301A2018D819E810E9494025FEF22
:10114000451A550A650A750A0F900F900F900F9077
:10115000BECF28EE33E040E050E00E94410BDC01BE
:10116000CB010196A11DB11DED81FE818087918784
:10117000A287B38711C0812C912C54018A94C12C71
:10118000D12C760100E010E0980140E050E0BA0177
:101190008D819E810E944F05AD81BE8155968D91B6
:1011A0009C9156978230910509F43FC08CF50197C8
:1011B00009F004C2409008015090090160900A01B2
:1011C00070900B01ED81FE810081118122813381BC
:1011D0000F5F1F4F2F4F3F4F04191509260937097D
:1011E000C12CD12C760140E050E0BA01CF010E9421
:1011F000500280901E0190901F01A0902001B0909D
:101200002101C12CD12C50E8E52E5FE3F52E3BC027
:101210008330910509F48CC0049709F0CFC120E018
:1012200030E080E090E0DC01ADC1409008015090DA
:10123000090160900A0170900B01AD81BE810D9192
:101240001D912D913C9113970F5F1F4F2F4F3F4FD3
:101250000419150926093709C12CD12C40E8E42EC0
:101260004FE3F42E40E050E0BA01CD010E9450025D
:1012700080901E0190901F01A0902001B09021014C
:10128000C12CD12C760195018401B501A4018D8179
:101290009E810E945002ED81FE8180819181A28118
:1012A000B3810196A11DB11DAC01BD0144195509C1
:1012B0006609770984169506A606B70658F11092B6
:1012C0001E0110921F011092200110922101481658
:1012D00059066A067B0680F0108A168A158A41E054
:1012E00050E060E070E04093080150930901609382
:1012F0000A0170930B0188C15FEF451A550A650A10
:10130000750A409208015092090160920A01709298
:101310000B017AC16FEF861A960AA60AB60A809266
:101320001E0190921F01A0922001B09221016CC178
:1013300080911A0190911B01A0911C01B0911D0197
:1013400089839A83AB83BC83892B8A2B8B2B09F0EF
:1013500088C0409004015090050160900601709093
:101360000701AD81BE810D911D912D913C91139787
:101370000F5F1F4F2F4F3F4F0419150926093709DB
:10138000C12CD12C760140E050E0BA01CD010E9481
:1013900050028090160190901701A0901801B09013
:1013A0001901C12CD12C90E8E92E9FE3F92E95016B
:1013B0008401B501A4018D819E810E945002ED81BE
:1013C000FE8180819181A281B3810196A11DB11D11
:1013D000AC01BD01441955096609770984169506C3
:1013E000A606B70680F1109216011092170110920E
:1013F000180110921901481659066A067B06A8F0D2
:1014000041E050E060E070E040931A0150931B010E
:1014100060931C0170931D014093040150930501DA
:101420006093060170930701EFC05FEF451A550AFC
:10143000650A750A40920401509205016092060106
:1014400070920701E1C06FEF861A960AA60AB60AE3
:101450008092160190921701A0921801B092190182
:10146000D3C089819A81AB81BC810197A105B10567
:1014700009F0CAC040900001509001016090020143
:1014800070900301AD81BE810D911D912D913C9114
:1014900013970F5F1F4F2F4F3F4F04191509260950
:1014A0003709C12CD12C80E8E82E8FE3F82E40E0DC
:1014B00050E0BA01CD010E9450028090120190903C
:1014C0001301A0901401B0901501C12CD12C76010C
:1014D00095018401B501A4018D819E810E94500275
:1014E000ED81FE8180819181A281B3810196A11D50
:1014F000B11DAC01BD01441955096609770984166F
:101500009506A606B70680F11092120110921301FB
:101510001092140110921501481659066A067B06AE
:10152000A8F010921A0110921B0110921C01109247
:101530001D0149815A816B817C8140930001509348
:10154000010160930201709303015EC05FEF451AD1
:10155000550A650A750A4092000150920101609295
:1015600002017092030150C06FEF861A960AA60A14
:10157000B60A8092120190921301A0921401B092C7
:10158000150142C0ED81FE814081518162817381EC
:1015900084179507A607B707B0F1ED81FE81468550
:1015A0005785FA01E20FF31F108211821282138213
:1015B0000196A11DB11D2C5F3F4FE4CF20E030E02C
:1015C00080E090E0DC01ED81FE814081518162810B
:1015D000738184179507A607B707A8F0ED81FE81F0
:1015E00046855785FA01E20FF31F41E050E060E0C5
:1015F00070E040835183628373830196A11DB11D06
:101600002C5F3F4FE0CF108AAD81BE8159968D91FE
:101610009C915A97FC0120853185232B11F00E9463
:10162000230180E090E0892B09F449CC0E9400005E
:1016300046CCAA1BBB1B51E107C0AA1FBB1FA617A4
:10164000B70710F0A61BB70B881F991F5A95A9F76B
:1016500080959095BC01CD01089597FB072E16F457
:10166000009407D077FD09D00E94190B07FC05D024
:101670003EF4909581959F4F0895709561957F4FA9
:101680000895A1E21A2EAA1BBB1BFD010DC0AA1FC3
:10169000BB1FEE1FFF1FA217B307E407F50720F0DB
:1016A000A21BB30BE40BF50B661F771F881F991F56
:1016B0001A9469F760957095809590959B01AC019F
:1016C000BD01CF0108955058BB27AA270E947B0B6C
:1016D0000C94CC0C0E94BE0C38F00E94C50C20F07B
:1016E00039F49F3F19F426F40C94BB0C0EF4E095EA
:1016F000E7FB0C94B50CE92F0E94DD0C58F3BA17E8
:10170000620773078407950720F079F4A6F50C9417
:10171000FF0C0EF4E0950B2EBA2FA02D0B01B90192
:1017200090010C01CA01A0011124FF27591B99F057
:10173000593F50F4503E68F11A16F040A22F232F63
:10174000342F4427585FF3CF469537952795A795B3
:10175000F0405395C9F77EF41F16BA0B620B730B5A
:10176000840BBAF09150A1F0FF0FBB1F661F771FCB
:10177000881FC2F70EC0BA0F621F731F841F48F480
:10178000879577956795B795F7959E3F08F0B0CF09
:101790009395880F08F09927EE0F979587950895F0
:1017A0000E94E40B0C94CC0C0E94C50C58F00E94D3
:1017B000BE0C40F029F45F3F29F00C94B50C511198
:1017C0000C94000D0C94BB0C0E94DD0C68F3992363
:1017D000B1F3552391F3951B550BBB27AA2762172D
:1017E0007307840738F09F5F5F4F220F331F441F3A
:1017F000AA1FA9F335D00E2E3AF0E0E832D091506E
:101800005040E695001CCAF72BD0FE2F29D0660F5A
:10181000771F881FBB1F261737074807AB07B0E89D
:1018200009F0BB0B802DBF01FF2793585F4F3AF0A3
:101830009E3F510578F00C94B50C0C94000D5F3F61
:10184000E4F3983ED4F3869577956795B795F79529
:101850009F5FC9F7880F911D9695879597F9089511
:10186000E1E0660F771F881FBB1F621773078407AD
:10187000BA0720F0621B730B840BBA0BEE1F88F7BC
:10188000E09508950E94490C6894B1110C94000DE4
:1018900008950E94E50C88F09F5798F0B92F99277A
:1018A000B751B0F0E1F0660F771F881F991F1AF04B
:1018B000BA95C9F714C0B13091F00E94FF0CB1E0A5
:1018C00008950C94FF0C672F782F8827B85F39F0A4
:1018D000B93FCCF3869577956795B395D9F73EF4E4
:1018E00090958095709561957F4F8F4F9F4F08958C
:1018F000E89409C097FB3EF49095809570956195AA
:101900007F4F8F4F9F4F9923A9F0F92F96E9BB275F
:101910009395F695879577956795B795F111F8CFDB
:10192000FAF4BB0F11F460FF1BC06F5F7F4F8F4F46
:101930009F4F16C0882311F096E911C0772321F03C
:101940009EE8872F762F05C0662371F096E8862FD4
:1019500070E060E02AF09A95660F771F881FDAF72B
:10196000880F9695879597F9089597F99F6780E86E
:1019700070E060E008959FEF80EC089500240A94E1
:101980001616170618060906089500240A9412165A
:101990001306140605060895092E0394000C11F48D
:1019A000882352F0BB0F40F4BF2B11F460FF04C03A
:1019B0006F5F7F4F8F4F9F4F089557FD9058440F93
:1019C000551F59F05F3F71F04795880F97FB991F9E
:1019D00061F09F3F79F0879508951216130614065B
:1019E000551FF2CF4695F1DF08C0161617061806E8
:1019F000991FF1CF86957105610508940895E894C3
:101A0000BB2766277727CB0197F908950E94190D08
:101A10000C94CC0C0E94BE0C38F00E94C50C20F037
:101A2000952311F00C94B50C0C94BB0C11240C9460
:101A3000000D0E94DD0C70F3959FC1F3950F50E0EF
:101A4000551F629FF001729FBB27F00DB11D639F70
:101A5000AA27F00DB11DAA1F649F6627B00DA11D16
:101A6000661F829F2227B00DA11D621F739FB00DBC
:101A7000A11D621F839FA00D611D221F749F33272C
:101A8000A00D611D231F849F600D211D822F762FC5
:101A90006A2F11249F5750409AF0F1F088234AF0A2
:101AA000EE0FFF1FBB1F661F771F881F915050400E
:101AB000A9F79E3F510580F00C94B50C0C94000DD5
:101AC0005F3FE4F3983ED4F3869577956795B79595
:101AD000F795E7959F5FC1F7FE2B880F911D9695AF
:101AE000879597F90895CF93DF938230910510F48D
:101AF00082E090E0E0912F01F091300120E030E0B1
:101B0000C0E0D0E0309711F140815181481759076A
:101B1000C0F04817590761F482819381209719F02A
:101B20009B838A832BC09093300180932F0126C022
:101B30002115310519F04217530718F49A01BE0117
:101B4000DF01EF010280F381E02DDCCF21153105AB
:101B500009F1281B390B2430310590F412968D9130
:101B60009C9113976115710521F0FB01938382838A
:101B700004C09093300180932F01FD01329644C040
:101B8000FD01E20FF31F81939193225031092D93B0
:101B90003C933AC020912D0130912E01232B41F42A
:101BA00020910E0130910F0130932E0120932D01D1
:101BB00020910C0130910D012115310541F42DB713
:101BC0003EB74091100150911101241B350BE0915B
:101BD0002D01F0912E01E217F307A0F42E1B3F0B0D
:101BE0002817390778F0AC014E5F5F4F241735078F
:101BF00048F04E0F5F1F50932E0140932D018193AB
:101C0000919302C0E0E0F0E0CF01DF91CF91089521
:101C10000F931F93CF93DF93009709F48CC0FC01BF
:101C200032971382128200912F0110913001011519
:101C3000110581F420813181820F931F20912D01A4
:101C400030912E012817390779F5F0932E01E09392
:101C50002D0171C0D80140E050E0AE17BF0750F42D
:101C600012962D913C911397AD012115310509F183
:101C7000D901F3CF9D01DA01338322836081718121
:101C8000860F971F8217930769F4EC012881398129
:101C9000260F371F2E5F3F4F318320838A819B8120
:101CA00093838283452B29F4F0933001E0932F0135
:101CB00042C01396FC93EE931297ED01499159910E
:101CC0009E01240F351FE217F30771F48081918183
:101CD000840F951F029611969C938E938281938117
:101CE00013969C938E931297E0E0F0E0D801129641
:101CF0008D919C911397009719F0F8018C01F6CF04
:101D00008D919C9198012E5F3F4F820F931F2091E0
:101D10002D0130912E012817390769F4309729F4E5
:101D20001092300110922F0102C013821282109380
:101D30002E0100932D01DF91CF911F910F910895F6
:041D4000F894FFCF45
:101D4400010000000100000001000000000031015A
:021D540080000D
:00000001FF
